:020000020000fc
:0100000002fd
:0100010001fd
:0100020002fb
:0100030001fb
:0100040001fa
:0100050002f8
:0100060000f9
:0100070001f7
:0100080003f4
:0100090003f3
:01000a0002f3
:01000b0000f4
:01000c0000f3
:01000d0002f0
:01000e0002ef
:01000f0003ed
:0100100003ec
:0100110002ec
:0100120000ed
:0100130003e9
:0100140003e8
:0100150001e9
:0100160002e7
:0100170001e7
:0100180001e6
:0100190003e3
:01001a0001e4
:01001b0002e2
:01001c0000e3
:01001d0001e1
:01001e0003de
:01001f0001df
:0100200003dc
:0100210003db
:0100220000dd
:0100230002da
:0100240002d9
:0100250002d8
:0100260003d6
:0100270002d6
:0100280003d4
:0100290002d4
:01002a0003d2
:01002b0003d1
:01002c0001d2
:01002d0003cf
:01002e0000d1
:01002f0000d0
:0100300001ce
:0100310003cb
:0100320003ca
:0100330002ca
:0100340003c8
:0100350000ca
:0100360003c6
:0100370002c6
:0100380001c6
:0100390003c3
:01003a0003c2
:01003b0002c2
:01003c0002c1
:01003d0001c1
:01003e0002bf
:01003f0000c0
:0100400001be
:0100410000be
:0100420001bc
:0100430003b9
:0100440003b8
:0100450003b7
:0100460003b6
:0100470002b6
:0100480002b5
:0100490002b4
:01004a0000b5
:01004b0002b2
:01004c0001b2
:01004d0002b0
:01004e0003ae
:01004f0003ad
:0100500001ae
:0100510000ae
:0100520000ad
:0100530000ac
:0100540001aa
:0100550001a9
:0100560001a8
:0100570000a8
:0100580003a4
:0100590003a3
:01005a0002a3
:01005b0001a3
:01005c0002a1
:01005d0000a2
:01005e0000a1
:01005f00039d
:01006000009f
:01006100039b
:01006200009d
:01006300029a
:010064000299
:010065000199
:010066000396
:010067000296
:010068000295
:010069000393
:01006a000293
:01006b000292
:01006c000390
:01006d00038f
:01006e00028f
:01006f000090
:01007000028d
:01007100018d
:01007200038a
:01007300018b
:01007400018a
:010075000387
:010076000287
:010077000187
:010078000087
:010079000383
:01007a000184
:01007b000084
:01007c000083
:01007d000280
:01007e000081
:01007f000080
:01008000007f
:01008100027c
:01008200007d
:01008300007c
:010084000378
:010085000278
:010086000277
:010087000276
:010088000374
:010089000175
:01008a000174
:01008b000272
:01008c000370
:01008d000072
:01008e000170
:01008f00026e
:01009000016e
:01009100006e
:01009200016c
:01009300016b
:01009400016a
:01009500006a
:010096000267
:010097000266
:010098000166
:010099000066
:01009a000362
:01009b000262
:01009c000360
:01009d000062
:01009e000160
:01009f00015f
:0100a000005f
:0100a100025c
:0100a200025b
:0100a3000359
:0100a400005b
:0100a500005a
:0100a6000356
:0100a7000157
:0100a8000156
:0100a9000353
:0100aa000253
:0100ab000153
:0100ac000053
:0100ad00034f
:0100ae00034e
:0100af00024e
:0100b000024d
:0100b100034b
:0100b200034a
:0100b300004c
:0100b400004b
:0100b5000248
:0100b6000346
:0100b7000147
:0100b8000245
:0100b9000244
:0100ba000243
:0100bb000341
:0100bc000142
:0100bd000042
:0100be00023f
:0100bf00023e
:0100c000033c
:0100c100023c
:0100c200003d
:0100c300013b
:0100c4000239
:0100c5000139
:0100c6000237
:0100c7000137
:0100c8000136
:0100c9000333
:0100ca000332
:0100cb000133
:0100cc000330
:0100cd00032f
:0100ce00032e
:0100cf00022e
:0100d000012e
:0100d100012d
:0100d200002d
:0100d3000329
:0100d400002b
:0100d5000327
:0100d6000128
:0100d7000226
:0100d8000225
:0100d9000026
:0100da000223
:0100db000321
:0100dc000320
:0100dd000220
:0100de00021f
:0100df00031d
:0100e000021d
:0100e100001e
:0100e200011c
:0100e300011b
:0100e400011a
:0100e500001a
:0100e6000019
:0100e7000018
:0100e8000116
:0100e9000016
:0100ea000114
:0100eb000113
:0100ec000013
:0100ed000210
:0100ee00030e
:0100ef00030d
:0100f000010e
:0100f100000e
:0100f200020b
:0100f300000c
:0100f4000209
:0100f5000208
:0100f6000108
:0100f7000008
:0100f8000205
:0100f9000105
:0100fa000104
:0100fb000103
:0100fc000201
:0100fd0003ff
:0100fe0002ff
:0100ff0002fe
:00000001FF
