:020000020000fc
:0100000003fc
:0100010002fc
:0100020000fd
:0100030001fb
:0100040001fa
:0100050003f7
:0100060001f8
:0100070000f8
:0100080001f6
:0100090001f5
:01000a0003f2
:01000b0003f1
:01000c0000f3
:01000d0002f0
:01000e0000f1
:01000f0001ef
:0100100003ec
:0100110001ed
:0100120002eb
:0100130002ea
:0100140003e8
:0100150000ea
:0100160002e7
:0100170001e7
:0100180000e7
:0100190000e6
:01001a0001e4
:01001b0002e2
:01001c0003e0
:01001d0002e0
:01001e0002df
:01001f0001df
:0100200003dc
:0100210001dd
:0100220002db
:0100230003d9
:0100240000db
:0100250003d7
:0100260001d8
:0100270001d7
:0100280001d6
:0100290000d6
:01002a0001d4
:01002b0001d3
:01002c0003d0
:01002d0001d1
:01002e0001d0
:01002f0003cd
:0100300000cf
:0100310002cc
:0100320000cd
:0100330002ca
:0100340000cb
:0100350002c8
:0100360003c6
:0100370000c8
:0100380001c6
:0100390000c6
:01003a0000c5
:01003b0002c2
:01003c0000c3
:01003d0000c2
:01003e0000c1
:01003f0001bf
:0100400000bf
:0100410002bc
:0100420003ba
:0100430001bb
:0100440002b9
:0100450002b8
:0100460000b9
:0100470001b7
:0100480000b7
:0100490001b5
:01004a0002b3
:01004b0003b1
:01004c0002b1
:01004d0000b2
:01004e0001b0
:01004f0002ae
:0100500001ae
:0100510003ab
:0100520002ab
:0100530001ab
:0100540002a9
:0100550001a9
:0100560001a8
:0100570002a6
:0100580002a5
:0100590002a4
:01005a0002a3
:01005b0001a3
:01005c0003a0
:01005d00039f
:01005e0000a1
:01005f00039d
:01006000039c
:01006100009e
:01006200019c
:01006300009c
:01006400019a
:01006500009a
:010066000198
:010067000296
:010068000295
:010069000294
:01006a000095
:01006b000292
:01006c000291
:01006d000290
:01006e000190
:01006f000090
:01007000018e
:01007100018d
:01007200008d
:01007300018b
:010074000388
:010075000288
:010076000386
:010077000187
:010078000186
:010079000383
:01007a000382
:01007b000381
:01007c000281
:01007d00037f
:01007e000180
:01007f00017f
:01008000037c
:01008100017d
:01008200017c
:01008300027a
:010084000378
:010085000377
:010086000079
:010087000375
:010088000176
:010089000076
:01008a000075
:01008b000173
:01008c000073
:01008d000072
:01008e00026f
:01008f000070
:01009000026d
:01009100036b
:01009200016c
:010093000369
:010094000269
:01009500006a
:010096000168
:010097000266
:010098000364
:010099000066
:01009a000065
:01009b000262
:01009c000360
:01009d00035f
:01009e000160
:01009f000060
:0100a000025d
:0100a100025c
:0100a200025b
:0100a300025a
:0100a400005b
:0100a5000159
:0100a6000158
:0100a7000256
:0100a8000156
:0100a9000353
:0100aa000154
:0100ab000252
:0100ac000053
:0100ad00034f
:0100ae000150
:0100af00014f
:0100b000024d
:0100b100014d
:0100b200024b
:0100b300024a
:0100b400004b
:0100b5000248
:0100b6000049
:0100b7000147
:0100b8000047
:0100b9000244
:0100ba000243
:0100bb000143
:0100bc000340
:0100bd000141
:0100be00033e
:0100bf00023e
:0100c000033c
:0100c100003e
:0100c200013c
:0100c300013b
:0100c4000338
:0100c5000238
:0100c6000336
:0100c7000335
:0100c8000334
:0100c9000135
:0100ca000035
:0100cb000133
:0100cc000231
:0100cd000131
:0100ce00022f
:0100cf00022e
:0100d000002f
:0100d100032b
:0100d200012c
:0100d300022a
:0100d4000229
:0100d5000129
:0100d6000128
:0100d7000028
:0100d8000324
:0100d9000224
:0100da000322
:0100db000123
:0100dc000320
:0100dd000121
:0100de000021
:0100df00031d
:0100e000031c
:0100e100021c
:0100e200021b
:0100e300011b
:0100e400001b
:0100e5000317
:0100e6000118
:0100e7000315
:0100e8000116
:0100e9000313
:0100ea000312
:0100eb000014
:0100ec000112
:0100ed000210
:0100ee000110
:0100ef00010f
:0100f000010e
:0100f100000e
:0100f200000d
:0100f3000309
:0100f400000b
:0100f500000a
:0100f6000207
:0100f7000107
:0100f8000106
:0100f9000303
:0100fa000203
:0100fb000103
:0100fc000201
:0100fd0003ff
:0100fe0003fe
:0100ff000000
:00000001FF
